S00D000046435F4B522E7372656392
S11300000C942A000C9447000C9447000C9447006D
S11300100C9447000C9447000C9447000C94470040
S11300200C9447000C9447000C9447000C94470030
S11300300C9447000C9447000C9447000C94470020
S11300400C9447000C9447000C9447000C94470010
S11300500C94470011241FBECFE5D8E0DEBFCDBF0E
S113006010E0A0E6B0E0EEECF2E002C005900D92E4
S1130070A837B107D9F720E0A8E7B0E001C01D9286
S1130080AC37B207E1F70E9433010C9465010C947C
S113009000008BBBC098C198C39A85E08A95F1F79C
S11300A00000C3988FE891E00197F1F700C00000C9
S11300B00895EFE8F1E03197F1F700C000008BBB41
S11300C0C09AC198C39AF5E0FA95F1F70000C39875
S11300D08FE891E00197F1F700C0000008952FEF39
S11300E089EF90E0215080409040E1F700C000008B
S11300F08FEF8ABB87BBC3988FE39FE10197F1F72A
S113010000C0000088E30E9449008CE00E9449007E
S113011081E00E94490086E00E94490087E00E9435
S1130120490008951F93CF93DF93EC0188818823BE
S113013091F0FE0110E08FE79EE30197F1F700C014
S1130140000080810E9459001F5FFE01E10FF11D34
S113015080818111F0CFDF91CF911F9108958EEFAF
S113016082BB85E38A95F1F70000849907C080E695
S113017090E090937900809378000895859907C062
S113018082E690E0909379008093780008958699B0
S113019006C084E690E090937900809378000895F7
S11301A08DEF82BB85E38A95F1F70000849907C03F
S11301B086E690E09093790080937800089585997D
S11301C007C088E690E090937900809378000895C2
S11301D0869906C08AE690E090937900809378002F
S11301E008958BEF82BB85E38A95F1F7000084992B
S11301F007C08CE690E0909379008093780008958E
S1130200859907C08EE690E09093790080937800FA
S11302100895869906C080E790E0909379008093D2
S11302207800089587EF82BB85E38A95F1F7000093
S1130230849907C082E790E09093790080937800D6
S11302400895859907C084E790E09093790080939E
S113025078000895869906C086E790E09093790027
S11302608093780008958FEF84BB8ABB0E946F004F
S11302708FE081BB80EF82BBC0EFC2BB80B3803F05
S1130280E1F30E94AF000E94D0000E94F1000E949E
S113029012012FEF81EE94E0215080409040E1F76D
S11302A000C0000080E80E9449008091780090918D
S11302B079000E9492002FEF81EE94E0215080405B
S11102C09040E1F700C00000D8CFF894FFCFC3
S11302CE3100320033003400350036003700380078
S10B02DE39002A00300023005E
S9030000FC
