:100000000C942A000C943F000C943F000C943F0089
:100010000C943F000C943F000C943F000C943F0064
:100020000C943F000C943F000C943F000C943F0054
:100030000C943F000C943F000C943F000C943F0044
:100040000C943F000C943F000C943F000C943F0034
:100050000C943F0011241FBECFE5D8E0DEBFCDBF1A
:1000600010E0A0E6B0E0E4E2F1E002C005900D92FD
:10007000A836B107D9F70E9489000C9490000C941F
:10008000000080E690E028E630E0FC0141914BBBA7
:100090004FEF50E762E0415050406040E1F700C050
:1000A0000000E217F30791F71BBAE8E6F0E042918F
:1000B00045BB4FEF50E762E0415050406040E1F7F0
:1000C00000C000008E179F0791F715BAE0E6F0E038
:1000D000419145BB4FEF50E762E0415050406040D6
:1000E000E1F700C000002E173F0791F715BAE8E6C8
:1000F000F0E022912BBB2FEF30E742E0215030405F
:100100004040E1F700C00000E817F90791F71BBA7B
:1001100008958FEF84BB8ABB11BA0E944100FDCFC6
:04012000F894FFCF81
:080124000102040810204080D4
:00000001FF
